{
  "contractName": "Ballot",
  "abi": [
    {
      "constant": true,
      "inputs": [],
      "name": "INITIAL_POLL_NONCE",
      "outputs": [
        {
          "name": "",
          "type": "uint256"
        }
      ],
      "payable": false,
      "stateMutability": "view",
      "type": "function"
    },
    {
      "constant": true,
      "inputs": [
        {
          "name": "",
          "type": "uint256"
        }
      ],
      "name": "pollMap",
      "outputs": [
        {
          "name": "endDate",
          "type": "uint256"
        },
        {
          "name": "winningOption",
          "type": "uint256"
        },
        {
          "name": "executedTimestamp",
          "type": "uint256"
        },
        {
          "name": "code",
          "type": "address"
        },
        {
          "name": "sig",
          "type": "bytes4"
        }
      ],
      "payable": false,
      "stateMutability": "view",
      "type": "function"
    },
    {
      "constant": true,
      "inputs": [],
      "name": "pollNonce",
      "outputs": [
        {
          "name": "",
          "type": "uint256"
        }
      ],
      "payable": false,
      "stateMutability": "view",
      "type": "function"
    },
    {
      "constant": true,
      "inputs": [],
      "name": "dllPolls",
      "outputs": [
        {
          "name": "first",
          "type": "uint256"
        },
        {
          "name": "last",
          "type": "uint256"
        },
        {
          "name": "count",
          "type": "uint256"
        }
      ],
      "payable": false,
      "stateMutability": "view",
      "type": "function"
    },
    {
      "inputs": [
        {
          "name": "_configuration",
          "type": "address"
        }
      ],
      "payable": false,
      "stateMutability": "nonpayable",
      "type": "constructor"
    },
    {
      "anonymous": false,
      "inputs": [
        {
          "indexed": false,
          "name": "endDate",
          "type": "uint256"
        },
        {
          "indexed": false,
          "name": "datas",
          "type": "bytes[]"
        },
        {
          "indexed": true,
          "name": "pollID",
          "type": "uint256"
        },
        {
          "indexed": true,
          "name": "creator",
          "type": "address"
        }
      ],
      "name": "LogPollCreated",
      "type": "event"
    },
    {
      "anonymous": false,
      "inputs": [
        {
          "indexed": true,
          "name": "voter",
          "type": "address"
        },
        {
          "indexed": true,
          "name": "pollID",
          "type": "uint256"
        },
        {
          "indexed": false,
          "name": "option",
          "type": "uint256"
        },
        {
          "indexed": false,
          "name": "votes",
          "type": "uint256"
        }
      ],
      "name": "LogVote",
      "type": "event"
    },
    {
      "anonymous": false,
      "inputs": [
        {
          "indexed": true,
          "name": "pollID",
          "type": "uint256"
        },
        {
          "indexed": false,
          "name": "winningOption",
          "type": "uint256"
        },
        {
          "indexed": false,
          "name": "winningPercentage",
          "type": "uint256"
        },
        {
          "indexed": false,
          "name": "executed",
          "type": "bool"
        }
      ],
      "name": "LogPollEnded",
      "type": "event"
    },
    {
      "constant": false,
      "inputs": [
        {
          "name": "_code",
          "type": "address"
        },
        {
          "name": "_sig",
          "type": "bytes4"
        },
        {
          "name": "_datas",
          "type": "bytes[]"
        }
      ],
      "name": "startPoll",
      "outputs": [
        {
          "name": "pollID",
          "type": "uint256"
        }
      ],
      "payable": false,
      "stateMutability": "nonpayable",
      "type": "function"
    },
    {
      "constant": false,
      "inputs": [
        {
          "name": "pollID",
          "type": "uint256"
        },
        {
          "name": "option",
          "type": "uint256"
        }
      ],
      "name": "vote",
      "outputs": [],
      "payable": false,
      "stateMutability": "nonpayable",
      "type": "function"
    },
    {
      "constant": false,
      "inputs": [],
      "name": "endPoll",
      "outputs": [],
      "payable": false,
      "stateMutability": "nonpayable",
      "type": "function"
    },
    {
      "constant": true,
      "inputs": [
        {
          "name": "pollID",
          "type": "uint256"
        }
      ],
      "name": "pollExists",
      "outputs": [
        {
          "name": "",
          "type": "bool"
        }
      ],
      "payable": false,
      "stateMutability": "view",
      "type": "function"
    },
    {
      "constant": true,
      "inputs": [
        {
          "name": "pollID",
          "type": "uint256"
        }
      ],
      "name": "pollExpired",
      "outputs": [
        {
          "name": "",
          "type": "bool"
        }
      ],
      "payable": false,
      "stateMutability": "view",
      "type": "function"
    },
    {
      "constant": true,
      "inputs": [
        {
          "name": "pollID",
          "type": "uint256"
        }
      ],
      "name": "pollExecuted",
      "outputs": [
        {
          "name": "",
          "type": "bool"
        }
      ],
      "payable": false,
      "stateMutability": "view",
      "type": "function"
    }
  ],
  "bytecode": "0x60806040523480156200001157600080fd5b50604051602080620024288339810180604052620000339190810190620000c0565b600160a060020a038116151562000081576040517f08c379a0000000000000000000000000000000000000000000000000000000008152600401620000789062000119565b60405180910390fd5b60068054600160a060020a031916600160a060020a0392909216919091179055600080556200014a565b6000620000b982516200013d565b9392505050565b600060208284031215620000d357600080fd5b6000620000e18484620000ab565b949350505050565b601381527f616464726573732030206e6f742076616c696400000000000000000000000000602082015260400190565b602080825281016200012b81620000e9565b92915050565b600160a060020a031690565b60006200012b8262000131565b6122ce806200015a6000396000f3fe60806040526004361061008a5763ffffffff60e060020a6000350416632173a10f811461008f5780632b8e9871146100ba5780633655a3c8146100e75780636148fed514610107578063882ad61a1461013857806388d21ff3146101585780638d99b2eb1461017857806397508f361461018f578063b384abef146101a4578063e5981a82146101c4575b600080fd5b34801561009b57600080fd5b506100a46101e8565b6040516100b191906120aa565b60405180910390f35b3480156100c657600080fd5b506100da6100d53660046119cf565b6101ed565b6040516100b19190611f3c565b3480156100f357600080fd5b506100a461010236600461194c565b610204565b34801561011357600080fd5b506101276101223660046119cf565b610648565b6040516100b1959493929190612136565b34801561014457600080fd5b506100da6101533660046119cf565b610688565b34801561016457600080fd5b506100da6101733660046119cf565b6106b2565b34801561018457600080fd5b5061018d6106c7565b005b34801561019b57600080fd5b506100a46109d0565b3480156101b057600080fd5b5061018d6101bf366004611a0b565b6109d6565b3480156101d057600080fd5b506101d9610d8f565b6040516100b19392919061210e565b600081565b600090815260016020526040902060020154151590565b600654604080517f710613980000000000000000000000000000000000000000000000000000000081529051600092600160a060020a0316916371061398916004808301926020929190829003018186803b15801561026257600080fd5b505afa158015610276573d6000803e3d6000fd5b505050506040513d601f19601f8201168201806040525061029a9190810190611926565b600160a060020a031663e99f5b163330600035600160e060020a0319166040518463ffffffff1660e060020a0281526004016102d893929190611e60565b60206040518083038186803b1580156102f057600080fd5b505afa158015610304573d6000803e3d6000fd5b505050506040513d601f19601f8201168201806040525061032891908101906119b1565b15156103525760405160e560020a62461bcd02815260040161034990611fda565b60405180910390fd5b61035a6106c7565b600160a060020a03841615156103855760405160e560020a62461bcd02815260040161034990611faa565b81516000106103a95760405160e560020a62461bcd02815260040161034990611f9a565b6103b4848484610d9b565b15156103d55760405160e560020a62461bcd02815260040161034990611f6a565b600654604080517f026b1d5f0000000000000000000000000000000000000000000000000000000081529051600092600160a060020a03169163026b1d5f916004808301926020929190829003018186803b15801561043357600080fd5b505afa158015610447573d6000803e3d6000fd5b505050506040513d601f19601f8201168201806040525061046b9190810190611926565b600160a060020a031663b0e3f7e6338787876040518563ffffffff1660e060020a02815260040161049f9493929190611e88565b60206040518083038186803b1580156104b757600080fd5b505afa1580156104cb573d6000803e3d6000fd5b505050506040513d601f19601f820116820180604052506104ef91908101906119ed565b60008054600101815590915061050b428363ffffffff610ee016565b6040805160c08101825282815260006020808301828152838501838152600160a060020a03808e1660608701908152600160e060020a03198e166080880190815260a088018e81528754885260018088529990972088518155945198850198909855915160028401559051600583018054975160e060020a900460a060020a0277ffffffff0000000000000000000000000000000000000000199290931673ffffffffffffffffffffffffffffffffffffffff199098169790971716179094559051805194955091936105e49260068501920190611669565b509050506105f3600054610f08565b33600160a060020a03166000547fea2f1263a2aa48e8270e9fbc4727d5db61a515743416a4121a2ed087006666b983876040516106319291906120b8565b60405180910390a3600054925050505b9392505050565b60016020819052600091825260409091208054918101546002820154600590920154909190600160a060020a0381169060a060020a900460e060020a0285565b6000610693826106b2565b80156106ac575060008281526001602052604090205442115b92915050565b600081158015906106ac575050600054101590565b6002546106d381610688565b156109cd5760008181526001602052604081209080805b600684015481116107545760008181526003850160205260409020548310156107285760008181526003850160205260409020546001850182905592505b600081815260038501602052604090205461074a90839063ffffffff610ee016565b91506001016106ea565b5060006107798261076d8561271063ffffffff61142716565b9063ffffffff61146816565b9050600660009054906101000a9004600160a060020a0316600160a060020a031663026b1d5f6040518163ffffffff1660e060020a02815260040160206040518083038186803b1580156107cc57600080fd5b505afa1580156107e0573d6000803e3d6000fd5b505050506040513d601f19601f820116820180604052506108049190810190611926565b60058501546040517f31c3622a000000000000000000000000000000000000000000000000000000008152600160a060020a03928316926331c3622a92610865929181169160a060020a90910460e060020a029060068a0190600401611f06565b60206040518083038186803b15801561087d57600080fd5b505afa158015610891573d6000803e3d6000fd5b505050506040513d601f19601f820116820180604052506108b591908101906119ed565b811180156108c65750600184015415155b156108fd576108d5855a6114a2565b15156108f65760405160e560020a62461bcd02815260040161034990611ffa565b4260028501555b6040517f6d900ed000000000000000000000000000000000000000000000000000000000815273__DLL___________________________________90636d900ed090610950906002908990600401612074565b60006040518083038186803b15801561096857600080fd5b505af415801561097c573d6000803e3d6000fd5b50505050847f332ddaff52345647a0aef31be17a4ac0ff08d3c358a0d7d24e284e5f8ef9b2978560010154838760020154600014156040516109c0939291906120e6565b60405180910390a2505050505b50565b60005481565b600660009054906101000a9004600160a060020a0316600160a060020a031663710613986040518163ffffffff1660e060020a02815260040160206040518083038186803b158015610a2757600080fd5b505afa158015610a3b573d6000803e3d6000fd5b505050506040513d601f19601f82011682018060405250610a5f9190810190611926565b600160a060020a031663e99f5b163330600035600160e060020a0319166040518463ffffffff1660e060020a028152600401610a9d93929190611e60565b60206040518083038186803b158015610ab557600080fd5b505afa158015610ac9573d6000803e3d6000fd5b505050506040513d601f19601f82011682018060405250610aed91908101906119b1565b1515610b0e5760405160e560020a62461bcd02815260040161034990611fda565b610b166106c7565b6000828152600160205260409020610b2d836106b2565b8015610b3f5750610b3d83610688565b155b1515610b605760405160e560020a62461bcd02815260040161034990611f6a565b6006810154821115610b875760405160e560020a62461bcd02815260040161034990611fea565b33600090815260048201602052604090205415610bb95760405160e560020a62461bcd02815260040161034990611fca565b600654604080517f026b1d5f0000000000000000000000000000000000000000000000000000000081529051600092600160a060020a03169163026b1d5f916004808301926020929190829003018186803b158015610c1757600080fd5b505afa158015610c2b573d6000803e3d6000fd5b505050506040513d601f19601f82011682018060405250610c4f9190810190611926565b60058301546040517f2c9d575e000000000000000000000000000000000000000000000000000000008152600160a060020a0392831692632c9d575e92610cb092339282169160a060020a900460e060020a02906006890190600401611ecc565b60206040518083038186803b158015610cc857600080fd5b505afa158015610cdc573d6000803e3d6000fd5b505050506040513d601f19601f82011682018060405250610d0091908101906119ed565b336000908152600484016020908152604080832087905586835260038601909152902054909150610d37908263ffffffff610ee016565b6000848152600384016020526040908190209190915551849033907f3f3329a286f1708eca4fb72be7f1d85535f979339d617d6e36ff9c8d64def7de90610d8190879086906120d8565b60405180910390a350505050565b60025460035460045483565b600654604080517f026b1d5f0000000000000000000000000000000000000000000000000000000081529051600092600160a060020a03169163026b1d5f916004808301926020929190829003018186803b158015610df957600080fd5b505afa158015610e0d573d6000803e3d6000fd5b505050506040513d601f19601f82011682018060405250610e319190810190611926565b600160a060020a0316637d1d252f338686866040518563ffffffff1660e060020a028152600401610e659493929190611e88565b60206040518083038186803b158015610e7d57600080fd5b505afa158015610e91573d6000803e3d6000fd5b505050506040513d601f19601f82011682018060405250610eb591908101906119b1565b1515610ed65760405160e560020a62461bcd02815260040161034990611f6a565b5060019392505050565b6000828201838110156106415760405160e560020a62461bcd02815260040161034990611f4a565b600654604080517f0ef2dfd60000000000000000000000000000000000000000000000000000000081529051600092600160a060020a031691630ef2dfd6916004808301926020929190829003018186803b158015610f6657600080fd5b505afa158015610f7a573d6000803e3d6000fd5b505050506040513d601f19601f82011682018060405250610f9e91908101906119ed565b90506000811115610fcd576004548111610fcd5760405160e560020a62461bcd02815260040161034990611f5a565b610fd56116c6565b6000838152600160208181526040808420815160c0810183528154815293810154848401526002810154848301526005810154600160a060020a038116606086015260a060020a900460e060020a02600160e060020a03191660808501526006810180548351818602810186019094528084529495919460a08701949192909184015b828210156111035760008481526020908190208301805460408051601f60026000196101006001871615020190941693909304928301859004850281018501909152818152928301828280156110ef5780601f106110c4576101008083540402835291602001916110ef565b820191906000526020600020905b8154815290600101906020018083116110d257829003601f168201915b505050505081526020019060010190611058565b505050915250506003546004549192509015156111a7576040517f9735c51b00000000000000000000000000000000000000000000000000000000815273__DLL___________________________________90639735c51b90611172906002906000908990829060040161200a565b60006040518083038186803b15801561118a57600080fd5b505af415801561119e573d6000803e3d6000fd5b50505050611421565b6002546000908152600160205260409020548251101561121857600280546040517f9735c51b00000000000000000000000000000000000000000000000000000000815273__DLL___________________________________92639735c51b92611172926000918a9160040161203f565b6004545b600081111561141f57600082815260016020526040902054835110611371576040517f07d29ac900000000000000000000000000000000000000000000000000000000815260009073__DLL___________________________________906307d29ac990611291906002908790600401612074565b60206040518083038186803b1580156112a957600080fd5b505af41580156112bd573d6000803e3d6000fd5b505050506040513d601f19601f820116820180604052506112e191908101906119ed565b6040517f9735c51b00000000000000000000000000000000000000000000000000000000815290915073__DLL___________________________________90639735c51b9061133b9060029087908b90879060040161208f565b60006040518083038186803b15801561135357600080fd5b505af4158015611367573d6000803e3d6000fd5b505050505061141f565b6040517f30fe0a0a00000000000000000000000000000000000000000000000000000000815273__DLL___________________________________906330fe0a0a906113c4906002908690600401612074565b60206040518083038186803b1580156113dc57600080fd5b505af41580156113f0573d6000803e3d6000fd5b505050506040513d601f19601f8201168201806040525061141491908101906119ed565b91506000190161121c565b505b50505050565b6000821515611438575060006106ac565b82820282848281151561144757fe5b04146106415760405160e560020a62461bcd02815260040161034990611fba565b600080821161148c5760405160e560020a62461bcd02815260040161034990611f8a565b6000828481151561149957fe5b04949350505050565b60006114ac6116c6565b6000848152600160208181526040808420815160c0810183528154815293810154848401526002810154848301526005810154600160a060020a038116606086015260a060020a900460e060020a02600160e060020a03191660808501526006810180548351818602810186019094528084529495919460a08701949192909184015b828210156115da5760008481526020908190208301805460408051601f60026000196101006001871615020190941693909304928301859004850281018501909152818152928301828280156115c65780601f1061159b576101008083540402835291602001916115c6565b820191906000526020600020905b8154815290600101906020018083116115a957829003601f168201915b50505050508152602001906001019061152f565b50505091525050606081015160208201519192509060009061160390600163ffffffff61163e16565b905060608360a001518281518110151561161957fe5b9060200190602002015190506000808251602084016000878bf1979650505050505050565b6000828211156116635760405160e560020a62461bcd02815260040161034990611f7a565b50900390565b8280548282559060005260206000209081019282156116b6579160200282015b828111156116b657825180516116a6918491602090910190611725565b5091602001919060010190611689565b506116c292915061179f565b5090565b60c0604051908101604052806000815260200160008152602001600081526020016000600160a060020a0316815260200160007bffffffffffffffffffffffffffffffffffffffffffffffffffffffff19168152602001606081525090565b828054600181600116156101000203166002900490600052602060002090601f016020900481019282601f1061176657805160ff1916838001178555611793565b82800160010185558215611793579182015b82811115611793578251825591602001919060010190611778565b506116c29291506117c5565b6117c291905b808211156116c25760006117b982826117df565b506001016117a5565b90565b6117c291905b808211156116c257600081556001016117cb565b50805460018160011615610100020316600290046000825580601f1061180557506109cd565b601f0160209004906000526020600020908101906109cd91906117c5565b60006106418235612208565b60006106418251612208565b6000601f8201831361184c57600080fd5b813561185f61185a8261219f565b612178565b81815260209384019390925082018360005b8381101561189d578135860161188788826118bf565b8452506020928301929190910190600101611871565b5050505092915050565b60006106418251612213565b60006106418235612218565b6000601f820183136118d057600080fd5b81356118de61185a826121c0565b915080825260208301602083018583830111156118fa57600080fd5b611905838284612252565b50505092915050565b600061064182356117c2565b600061064182516117c2565b60006020828403121561193857600080fd5b6000611944848461182f565b949350505050565b60008060006060848603121561196157600080fd5b600061196d8686611823565b935050602061197e868287016118b3565b925050604084013567ffffffffffffffff81111561199b57600080fd5b6119a78682870161183b565b9150509250925092565b6000602082840312156119c357600080fd5b600061194484846118a7565b6000602082840312156119e157600080fd5b6000611944848461190e565b6000602082840312156119ff57600080fd5b6000611944848461191a565b60008060408385031215611a1e57600080fd5b6000611a2a858561190e565b9250506020611a3b8582860161190e565b9150509250929050565b611a4e81612231565b82525050565b611a4e81612208565b6000611a68826121fa565b80845260208401935083602082028501611a81856121e8565b60005b84811015611ab8578383038852611a9c838351611b30565b9250611aa7826121e8565b602098909801979150600101611a84565b50909695505050505050565b6000611acf826121fe565b80845260208401935083602082028501611ae8856121ee565b60005b84811015611ab8578383038852611b028383611b65565b9250611b0d82612202565b602098909801979150600101611aeb565b611a4e81612213565b611a4e81612218565b6000611b3b826121fa565b808452611b4f81602086016020860161225e565b611b588161228a565b9093016020019392505050565b600081546001811660008114611b825760018114611ba057611bdc565b60028204607f16855260ff1982166020860152604085019250611bdc565b60028204808652602086019550611bb6856121ee565b60005b82811015611bd557815488820152600190910190602001611bb9565b8701945050505b505092915050565b611a4e8161223c565b601b81527f536166654d6174683a206164646974696f6e206f766572666c6f770000000000602082015260400190565b600e81527f746f6f206d616e7920706f6c6c73000000000000000000000000000000000000602082015260400190565b600c81527f696e76616c696420706f6c6c0000000000000000000000000000000000000000602082015260400190565b601e81527f536166654d6174683a207375627472616374696f6e206f766572666c6f770000602082015260400190565b601a81527f536166654d6174683a206469766973696f6e206279207a65726f000000000000602082015260400190565b601d81527f6174206c656173742073686f756c64206265206f6e65206f7074696f6e000000602082015260400190565b601381527f616464726573732030206e6f742076616c696400000000000000000000000000602082015260400190565b602181527f536166654d6174683a206d756c7469706c69636174696f6e206f766572666c6f60208201527f7700000000000000000000000000000000000000000000000000000000000000604082015260600190565b601281527f7573657220616c726561647920766f7465640000000000000000000000000000602082015260400190565b601a81527f756e617574686f72697a65642066756e6374696f6e2063616c6c000000000000602082015260400190565b601381527f6f7074696f6e206f7574206f662072616e676500000000000000000000000000602082015260400190565b601381527f63616c6c20657865637574696f6e206661696c00000000000000000000000000602082015260400190565b9052565b611a4e816117c2565b60608101611e6e8286611a45565b611e7b6020830185611a54565b6119446040830184611b27565b60808101611e968287611a45565b611ea36020830186611a54565b611eb06040830185611b27565b8181036060830152611ec28184611a5d565b9695505050505050565b60808101611eda8287611a45565b611ee76020830186611a54565b611ef46040830185611b27565b8181036060830152611ec28184611ac4565b60608101611f148286611a54565b611f216020830185611b27565b8181036040830152611f338184611ac4565b95945050505050565b602081016106ac8284611b1e565b602080825281016106ac81611bed565b602080825281016106ac81611c1d565b602080825281016106ac81611c4d565b602080825281016106ac81611c7d565b602080825281016106ac81611cad565b602080825281016106ac81611cdd565b602080825281016106ac81611d0d565b602080825281016106ac81611d3d565b602080825281016106ac81611d93565b602080825281016106ac81611dc3565b602080825281016106ac81611df3565b602080825281016106ac81611e23565b608081016120188287611e53565b6120256020830186611be4565b6120326040830185611e57565b611f336060830184611be4565b6080810161204d8287611e53565b61205a6020830186611be4565b6120676040830185611e57565b611f336060830184611e57565b604081016120828285611e53565b6106416020830184611e57565b6080810161209d8287611e53565b61205a6020830186611e57565b602081016106ac8284611e57565b604081016120c68285611e57565b81810360208301526119448184611a5d565b604081016120828285611e57565b606081016120f48286611e57565b6121016020830185611e57565b6119446040830184611b1e565b6060810161211c8286611e57565b6121296020830185611e57565b6119446040830184611e57565b60a081016121448288611e57565b6121516020830187611e57565b61215e6040830186611e57565b61216b6060830185611a54565b611ec26080830184611b27565b60405181810167ffffffffffffffff8111828210171561219757600080fd5b604052919050565b600067ffffffffffffffff8211156121b657600080fd5b5060209081020190565b600067ffffffffffffffff8211156121d757600080fd5b506020601f91909101601f19160190565b60200190565b60009081526020902090565b5190565b5490565b60010190565b60006106ac82612225565b151590565b600160e060020a03191690565b600160a060020a031690565b60006106ac82612247565b60006106ac826117c2565b60006106ac82612208565b82818337506000910152565b60005b83811015612279578181015183820152602001612261565b838111156114215750506000910152565b601f01601f19169056fea265627a7a723058201bafc8d000af5b188a72504a3453d559f279f5dc12d562d435bbedd36dc0d6626c6578706572696d656e74616cf50037",
  "source": "pragma solidity 0.5.0;\npragma experimental ABIEncoderV2;\n\nimport \"./Roles.sol\";\nimport \"./Pool.sol\";\nimport \"./DLL.sol\";\nimport \"./configuration/BallotConfiguration.sol\";\nimport \"openzeppelin-solidity/contracts/math/SafeMath.sol\";\nimport \"openzeppelin-solidity/contracts/token/ERC20/IERC20.sol\";\n\ncontract Ballot  {\n    using SafeMath for uint256;\n    using DLL for DLL.Data;\n\n    uint256 constant public INITIAL_POLL_NONCE = 0;\n    uint256 public pollNonce;\n\n    // Poll params\n    mapping(uint256 => Poll) public pollMap; // maps pollID to Poll struct.\n    DLL.Data public dllPolls; // list of active polls.\n\n    BallotConfiguration configuration;\n\n    struct Poll {\n        uint256 endDate; // poll expiration.\n        uint256 winningOption; // result of the poll.\n        uint256 executedTimestamp; // timestamp when the winning option was executed.\n        mapping(uint256 => uint256) votesTally; //tally of votes of different options.\n        mapping(address => uint256) voteOptions; // stores the voteOption of an address.\n        address code; // smart contract to be called.\n        bytes4 sig; // function signature to be triggered.\n        bytes[] datas; // different options to be use as parameter.\n    }\n\n    event LogPollCreated(uint256 endDate, bytes[] datas, uint256 indexed pollID, address indexed creator);\n    event LogVote(address indexed voter, uint256 indexed pollID, uint256 option, uint256 votes);\n    event LogPollEnded(uint256 indexed pollID, uint256 winningOption, uint256 winningPercentage, bool executed);\n\n    constructor(address _configuration) public {\n        require(_configuration != address(0), \"address 0 not valid\"); \n        configuration = BallotConfiguration(_configuration);\n        pollNonce = INITIAL_POLL_NONCE;\n    }\n\n    modifier onlyAuth {\n        require(Roles(configuration.getRoles()).isAuthorized(msg.sender, address(this), msg.sig), \"unauthorized function call\");\n        _;\n    }\n\n    modifier finishPoll {\n        endPoll();\n        _;\n    }\n\n    /**\n     * @notice Start a new poll, the poll will determine which call will be done by the voting contract, only can be one poll active at once.\n     * @param _code It is the smart contract address to be called.\n     * @param _sig It is the smart contract function signature, related with the function to be executed.\n     * @param _datas It is the data option to be chosen in the poll, this data will be the msg.data of next call to be executed.\n                                 \n     * @return pollID  poll identifier.                                                       \n     */      \n    function startPoll(address _code, bytes4 _sig, bytes[] memory _datas)\n        public\n        onlyAuth\n\tfinishPoll\n        returns (uint256 pollID) {\n            require(_code != address(0), \"address 0 not valid\");\n\t\t\trequire(_datas.length > 0, \"at least should be one option\");\n            require(isValidPoll(_code, _sig, _datas), \"invalid poll\");\n            \n            uint256 pollDuration = Pool(configuration.getPool()).getPollDuration(msg.sender, _code, _sig, _datas);\n\t\t\t\n\t\t\tpollNonce = pollNonce + 1;\n\t\t\tuint256 _endDate = block.timestamp.add(pollDuration);\n\n\t\t\tpollMap[pollNonce] = Poll({\n\t\t\t\tendDate: _endDate,\n\t\t\t\twinningOption: 0,\n\t\t\t\texecutedTimestamp: 0,\n\t\t\t\tcode: _code,\n                sig: _sig,\n\t\t\t\tdatas: _datas\n\t\t\t});\n\n\t\t\tinsertPoll(pollNonce);\n\n\t\t\temit LogPollCreated(_endDate, _datas, pollNonce, msg.sender);\n\t\t\treturn pollNonce;\n        }\n\n\t/**\n     * @notice vote for the current poll.\n     * @param pollID poll identifier.\n     * @param option poll option chosen by the user.\n     */  \n    function vote(uint256 pollID, uint256 option)\n\tpublic\n\tonlyAuth\n\tfinishPoll {\n\t    Poll storage poll = pollMap[pollID];\n\t\t\n\t    require(pollExists(pollID) && !pollExpired(pollID), \"invalid poll\");\n\t    require(option <= poll.datas.length, \"option out of range\");\n\t    require(poll.voteOptions[msg.sender] == 0, \"user already voted\");\n\t\t \n\t    uint256 voteCount = Pool(configuration.getPool()).getVoteWeight(msg.sender, poll.code, poll.sig, poll.datas);\n\t    poll.voteOptions[msg.sender] = option;\n\t    poll.votesTally[option] = poll.votesTally[option].add(voteCount);\n\t    emit LogVote(msg.sender, pollID, option, voteCount);\n    }\n\n\t/**\n\t * @notice Ends the poll with the first end date and execute the transaction chosen.\n\t */\n\tfunction endPoll() public {\n\t\tuint256 pollID = dllPolls.first;\n\t\tif (pollExpired(pollID)) {\n\t\t\tPoll storage poll = pollMap[pollID];\n\t\t\tuint256 temporalWinning;\n\t\t\tuint256 total;\n\t\t\tfor (uint256 i = 0; i <= poll.datas.length; i++) {\n\t\t\t\tif (poll.votesTally[i] > temporalWinning) {\n\t\t\t\t\ttemporalWinning = poll.votesTally[i];\n\t\t\t\t\tpoll.winningOption = i;\n\t\t\t\t}\n\t\t\t\ttotal = total.add(poll.votesTally[i]);\n\t\t\t}\n\t\t\tuint256 winingPercentage = temporalWinning.mul(10000).div(total);\n\t\t\tif (winingPercentage > Pool(configuration.getPool()).getQuorum(poll.code, poll.sig, poll.datas) && poll.winningOption != 0) {\n\t\t\t\trequire(executeResult(pollID, gasleft()), \"call execution fail\");\n\t\t\t\tpoll.executedTimestamp = block.timestamp;\n\t\t\t}\n\t\t\tdllPolls.remove(pollID);\n\t\t\temit LogPollEnded(pollID, poll.winningOption, winingPercentage, poll.executedTimestamp != 0);\n\t\t}\n\t} \n\n    /**\n     * @notice Verify if the poll exists.\n     * @param pollID identifier of the poll.\n     * @return true if the poll exist.\n     */\n    function pollExists(uint256 pollID) public view returns (bool) {\n\t\treturn (pollID != 0 && pollID <= pollNonce);\n\t}\n\n\t/**\n\t * @notice Verify if the poll expired.\n\t * @param pollID identifier of the poll.\n\t * @return true if the poll expired.\n\t */\n\tfunction pollExpired(uint256 pollID) public view returns (bool) {\n\t\treturn (pollExists(pollID) && pollMap[pollID].endDate < block.timestamp);\n\t}\n\n\t/**\n\t * @notice Verify if the poll winning option was executed.\n\t * @param pollID identifier of the poll.\n\t * @return true if the poll was executed.\n\t */\n\tfunction pollExecuted(uint256 pollID) public view returns (bool) {\n\t\treturn (pollMap[pollID].executedTimestamp != 0);\n\t}\n\n\t/**\n\t * @notice Insert a poll to the active polls list, it is ordered by its duration.                     \n     * @param pollID poll identifier.                                                                     \n     */\n\tfunction insertPoll(uint256 pollID) internal {\n\t\tuint256 maxActivePolls = configuration.getMaxActivePolls();\n\t\tif (maxActivePolls > 0) {\n\t\t\trequire(dllPolls.count < maxActivePolls, \"too many polls\");\n\t\t}\n\n\t\tPoll memory newPoll = pollMap[pollID];\n\t\tuint256 currentPoll = dllPolls.last;\n\t\t\n\t\tif (dllPolls.count == 0) {\n\t\t\tdllPolls.insert(0, pollID, 0);\n\t\t} else if (newPoll.endDate < pollMap[dllPolls.first].endDate) {\n\t\t\tdllPolls.insert(0, pollID, dllPolls.first);\n\t\t} else {\n\t\t\tfor (uint256 i = dllPolls.count; i > 0; i--) {\n\t\t\t\tif (newPoll.endDate >= pollMap[currentPoll].endDate) {\n\t\t\t\t\tuint256 next = dllPolls.getNext(currentPoll);\n\t\t\t\t\tdllPolls.insert(currentPoll, pollID, next);\n\t\t\t\t\tbreak;\n\t\t\t\t}\n\t\t\t\tcurrentPoll = dllPolls.getPrev(currentPoll);\n\t\t\t}\n\t\t}\n\t}\n\n\t/**\n\t * @notice Execute the poll results.\n\t * @param pollID poll identifier.\n\t * @param txGas transaction gas needed to execute the transaction chosen.\n\t * @return success true winning poll call was executed.\n\t */\n\tfunction executeResult(uint256 pollID, uint256 txGas) internal returns (bool success) {\n\t\tPoll memory poll = pollMap[pollID];\n\t\taddress code = poll.code;\n\t\tuint256 winningOption = poll.winningOption.sub(1);\n\t\tbytes memory data = poll.datas[winningOption];\n\t\t/* solhint-disable indent */\n\t\tassembly {\n\t\t\tsuccess := call\n\t\t\t(\n\t\t\t\ttxGas,\n\t\t\t\tcode,\n\t\t\t\t0,\n\t\t\t\tadd(data, 0x20),\n\t\t\t\tmload(data),\n\t\t\t\t0,\n\t\t\t\t0\n\t\t\t)\n\t\t}\n\t}\n\n    function isValidPoll(address _code, bytes4 _sig, bytes[] memory _datas) internal view returns (bool) {\n        require(Pool(configuration.getPool()).isValidPoll(msg.sender, _code, _sig, _datas), \"invalid poll\");   \n        return true;\n    }\n\n}\n",
  "sourcePath": "/home/nimrod/SandBox/ethereum/aave/governance/contracts/Ballot.sol",
  "compiler": {
    "name": "solc",
    "version": "0.5.0+commit.1d4f565a.Emscripten.clang"
  },
  "schemaVersion": "3.0.11",
  "updatedAt": "2019-07-30T11:31:32.244Z",
  "devdoc": {
    "methods": {
      "pollExecuted(uint256)": {
        "params": {
          "pollID": "identifier of the poll."
        },
        "return": "true if the poll was executed."
      },
      "pollExists(uint256)": {
        "params": {
          "pollID": "identifier of the poll."
        },
        "return": "true if the poll exist."
      },
      "pollExpired(uint256)": {
        "params": {
          "pollID": "identifier of the poll."
        },
        "return": "true if the poll expired."
      },
      "startPoll(address,bytes4,bytes[])": {
        "params": {
          "_code": "It is the smart contract address to be called.",
          "_datas": "It is the data option to be chosen in the poll, this data will be the msg.data of next call to be executed.",
          "_sig": "It is the smart contract function signature, related with the function to be executed."
        },
        "return": "pollID  poll identifier.                                                       "
      },
      "vote(uint256,uint256)": {
        "params": {
          "option": "poll option chosen by the user.",
          "pollID": "poll identifier."
        }
      }
    }
  },
  "userdoc": {
    "methods": {
      "endPoll()": {
        "notice": "Ends the poll with the first end date and execute the transaction chosen."
      },
      "pollExecuted(uint256)": {
        "notice": "Verify if the poll winning option was executed."
      },
      "pollExists(uint256)": {
        "notice": "Verify if the poll exists."
      },
      "pollExpired(uint256)": {
        "notice": "Verify if the poll expired."
      },
      "startPoll(address,bytes4,bytes[])": {
        "notice": "Start a new poll, the poll will determine which call will be done by the voting contract, only can be one poll active at once."
      },
      "vote(uint256,uint256)": {
        "notice": "vote for the current poll."
      }
    }
  }
}