{
  "contractName": "BallotConfiguration",
  "abi": [
    {
      "constant": true,
      "inputs": [
        {
          "name": "",
          "type": "bytes4"
        }
      ],
      "name": "providers",
      "outputs": [
        {
          "name": "",
          "type": "address"
        }
      ],
      "payable": false,
      "stateMutability": "view",
      "type": "function"
    },
    {
      "constant": false,
      "inputs": [
        {
          "name": "_key",
          "type": "string"
        },
        {
          "name": "_param",
          "type": "uint256"
        }
      ],
      "name": "setParameter",
      "outputs": [],
      "payable": false,
      "stateMutability": "nonpayable",
      "type": "function"
    },
    {
      "constant": true,
      "inputs": [
        {
          "name": "",
          "type": "bytes4"
        }
      ],
      "name": "parameters",
      "outputs": [
        {
          "name": "",
          "type": "uint256"
        }
      ],
      "payable": false,
      "stateMutability": "view",
      "type": "function"
    },
    {
      "constant": false,
      "inputs": [
        {
          "name": "_key",
          "type": "string"
        },
        {
          "name": "_addr",
          "type": "address"
        }
      ],
      "name": "setProvider",
      "outputs": [],
      "payable": false,
      "stateMutability": "nonpayable",
      "type": "function"
    },
    {
      "constant": true,
      "inputs": [
        {
          "name": "_key",
          "type": "string"
        }
      ],
      "name": "getProvider",
      "outputs": [
        {
          "name": "",
          "type": "address"
        }
      ],
      "payable": false,
      "stateMutability": "view",
      "type": "function"
    },
    {
      "constant": false,
      "inputs": [],
      "name": "renounceOwnership",
      "outputs": [],
      "payable": false,
      "stateMutability": "nonpayable",
      "type": "function"
    },
    {
      "constant": true,
      "inputs": [],
      "name": "owner",
      "outputs": [
        {
          "name": "",
          "type": "address"
        }
      ],
      "payable": false,
      "stateMutability": "view",
      "type": "function"
    },
    {
      "constant": true,
      "inputs": [],
      "name": "isOwner",
      "outputs": [
        {
          "name": "",
          "type": "bool"
        }
      ],
      "payable": false,
      "stateMutability": "view",
      "type": "function"
    },
    {
      "constant": true,
      "inputs": [
        {
          "name": "_key",
          "type": "string"
        }
      ],
      "name": "getParameter",
      "outputs": [
        {
          "name": "",
          "type": "uint256"
        }
      ],
      "payable": false,
      "stateMutability": "view",
      "type": "function"
    },
    {
      "constant": false,
      "inputs": [
        {
          "name": "newOwner",
          "type": "address"
        }
      ],
      "name": "transferOwnership",
      "outputs": [],
      "payable": false,
      "stateMutability": "nonpayable",
      "type": "function"
    },
    {
      "anonymous": false,
      "inputs": [
        {
          "indexed": true,
          "name": "previousOwner",
          "type": "address"
        },
        {
          "indexed": true,
          "name": "newOwner",
          "type": "address"
        }
      ],
      "name": "OwnershipTransferred",
      "type": "event"
    },
    {
      "constant": true,
      "inputs": [],
      "name": "getRoles",
      "outputs": [
        {
          "name": "",
          "type": "address"
        }
      ],
      "payable": false,
      "stateMutability": "view",
      "type": "function"
    },
    {
      "constant": true,
      "inputs": [],
      "name": "getPool",
      "outputs": [
        {
          "name": "",
          "type": "address"
        }
      ],
      "payable": false,
      "stateMutability": "view",
      "type": "function"
    },
    {
      "constant": true,
      "inputs": [],
      "name": "getMaxActivePolls",
      "outputs": [
        {
          "name": "",
          "type": "uint256"
        }
      ],
      "payable": false,
      "stateMutability": "view",
      "type": "function"
    }
  ],
  "bytecode": "0x6080604081905260008054600160a060020a0319163317808255600160a060020a0316917f8be0079c531659141344cd1fd0a4f28419497f9722a3daafe3b4186f6b6457e0908290a3610bb0806100576000396000f3fe6080604052600436106100c45763ffffffff7c0100000000000000000000000000000000000000000000000000000000600035041663026b1d5f81146100c95780630ef2dfd6146100fa578063163a8ba7146101215780631c124e511461016a57806340ca6c25146102215780634df79b0b1461026a57806350cadc851461032857806371061398146103db578063715018a6146103f05780638da5cb5b146104055780638f32d59b1461041a5780639e647aac14610443578063f2fde38b146104f6575b600080fd5b3480156100d557600080fd5b506100de610529565b60408051600160a060020a039092168252519081900360200190f35b34801561010657600080fd5b5061010f61056e565b60408051918252519081900360200190f35b34801561012d57600080fd5b506100de6004803603602081101561014457600080fd5b50357bffffffffffffffffffffffffffffffffffffffffffffffffffffffff19166105ae565b34801561017657600080fd5b5061021f6004803603604081101561018d57600080fd5b8101906020810181356401000000008111156101a857600080fd5b8201836020820111156101ba57600080fd5b803590602001918460018302840111640100000000831117156101dc57600080fd5b91908080601f01602080910402602001604051908101604052809392919081815260200183838082843760009201919091525092955050913592506105c9915050565b005b34801561022d57600080fd5b5061010f6004803603602081101561024457600080fd5b50357bffffffffffffffffffffffffffffffffffffffffffffffffffffffff19166106b2565b34801561027657600080fd5b5061021f6004803603604081101561028d57600080fd5b8101906020810181356401000000008111156102a857600080fd5b8201836020820111156102ba57600080fd5b803590602001918460018302840111640100000000831117156102dc57600080fd5b91908080601f01602080910402602001604051908101604052809392919081815260200183838082843760009201919091525092955050509035600160a060020a031691506106c49050565b34801561033457600080fd5b506100de6004803603602081101561034b57600080fd5b81019060208101813564010000000081111561036657600080fd5b82018360208201111561037857600080fd5b8035906020019184600183028401116401000000008311171561039a57600080fd5b91908080601f0160208091040260200160405190810160405280939291908181526020018383808284376000920191909152509295506107cd945050505050565b3480156103e757600080fd5b506100de61087d565b3480156103fc57600080fd5b5061021f6108bd565b34801561041157600080fd5b506100de610960565b34801561042657600080fd5b5061042f61096f565b604080519115158252519081900360200190f35b34801561044f57600080fd5b5061010f6004803603602081101561046657600080fd5b81019060208101813564010000000081111561048157600080fd5b82018360208201111561049357600080fd5b803590602001918460018302840111640100000000831117156104b557600080fd5b91908080601f016020809104026020016040519081016040528093929190818152602001838380828437600092019190915250929550610980945050505050565b34801561050257600080fd5b5061021f6004803603602081101561051957600080fd5b5035600160a060020a0316610a1e565b60006105696040805190810160405280600481526020017f706f6f6c000000000000000000000000000000000000000000000000000000008152506107cd565b905090565b60006105696040805190810160405280600e81526020017f6d6178416374697665506f6c6c73000000000000000000000000000000000000815250610980565b600160205260009081526040902054600160a060020a031681565b6105d161096f565b1515610615576040805160e560020a62461bcd0281526020600482018190526024820152600080516020610b65833981519152604482015290519081900360640190fd5b8060026000846040516020018082805190602001908083835b6020831061064d5780518252601f19909201916020918201910161062e565b6001836020036101000a03801982511681845116808217855250505050505090500191505060405160208183030381529060405280519060200120600160e060020a031916600160e060020a0319168152602001908152602001600020819055505050565b60026020526000908152604090205481565b6106cc61096f565b1515610710576040805160e560020a62461bcd0281526020600482018190526024820152600080516020610b65833981519152604482015290519081900360640190fd5b8060016000846040516020018082805190602001908083835b602083106107485780518252601f199092019160209182019101610729565b6001836020036101000a03801982511681845116808217855250505050505090500191505060405160208183030381529060405280519060200120600160e060020a031916600160e060020a031916815260200190815260200160002060006101000a815481600160a060020a030219169083600160a060020a031602179055505050565b600060016000836040516020018082805190602001908083835b602083106108065780518252601f1990920191602091820191016107e7565b51815160209384036101000a60001901801990921691161790526040805192909401828103601f1901835284528151918101919091207bffffffffffffffffffffffffffffffffffffffffffffffffffffffff191686528501959095529290920160002054600160a060020a031695945050505050565b60006105696040805190810160405280600581526020017f726f6c65730000000000000000000000000000000000000000000000000000008152506107cd565b6108c561096f565b1515610909576040805160e560020a62461bcd0281526020600482018190526024820152600080516020610b65833981519152604482015290519081900360640190fd5b60008054604051600160a060020a03909116907f8be0079c531659141344cd1fd0a4f28419497f9722a3daafe3b4186f6b6457e0908390a36000805473ffffffffffffffffffffffffffffffffffffffff19169055565b600054600160a060020a031690565b600054600160a060020a0316331490565b600060026000836040516020018082805190602001908083835b602083106109b95780518252601f19909201916020918201910161099a565b6001836020036101000a03801982511681845116808217855250505050505090500191505060405160208183030381529060405280519060200120600160e060020a031916600160e060020a0319168152602001908152602001600020549050919050565b610a2661096f565b1515610a6a576040805160e560020a62461bcd0281526020600482018190526024820152600080516020610b65833981519152604482015290519081900360640190fd5b610a7381610a76565b50565b600160a060020a0381161515610afc576040805160e560020a62461bcd02815260206004820152602660248201527f4f776e61626c653a206e6577206f776e657220697320746865207a65726f206160448201527f6464726573730000000000000000000000000000000000000000000000000000606482015290519081900360840190fd5b60008054604051600160a060020a03808516939216917f8be0079c531659141344cd1fd0a4f28419497f9722a3daafe3b4186f6b6457e091a36000805473ffffffffffffffffffffffffffffffffffffffff1916600160a060020a039290921691909117905556fe4f776e61626c653a2063616c6c6572206973206e6f7420746865206f776e6572a165627a7a723058205949f45514a930250783aee99d58e35593a4873cc464ec6214dedd71073e0f6c0029",
  "source": "pragma solidity 0.5.0;\n\nimport \"./base/Configurable.sol\";\n\n/**\n * @title configuration contract\n * @author Aave\n */\n\ncontract BallotConfiguration is Configurable {\n\n    //providers\n    function getRoles() public view returns(address) { return getProvider(\"roles\");}\n    function getPool() public view returns(address) { return getProvider(\"pool\");}\n    \n\n    //parameters\n    function getMaxActivePolls() public view returns(uint256) { return getParameter(\"maxActivePolls\");}\n    \n}\n",
  "sourcePath": "/home/nimrod/SandBox/ethereum/aave/governance/contracts/configuration/BallotConfiguration.sol",
  "compiler": {
    "name": "solc",
    "version": "0.5.0+commit.1d4f565a.Emscripten.clang"
  },
  "schemaVersion": "3.0.11",
  "updatedAt": "2019-07-30T11:31:32.228Z",
  "devdoc": {
    "author": "Aave",
    "methods": {
      "isOwner()": {
        "details": "Returns true if the caller is the current owner."
      },
      "owner()": {
        "details": "Returns the address of the current owner."
      },
      "renounceOwnership()": {
        "details": "Leaves the contract without owner. It will not be possible to call `onlyOwner` functions anymore. Can only be called by the current owner.     * > Note: Renouncing ownership will leave the contract without an owner, thereby removing any functionality that is only available to the owner."
      },
      "transferOwnership(address)": {
        "details": "Transfers ownership of the contract to a new account (`newOwner`). Can only be called by the current owner."
      }
    },
    "title": "configuration contract"
  },
  "userdoc": {
    "methods": {}
  }
}