{
  "contractName": "Configurable",
  "abi": [
    {
      "constant": true,
      "inputs": [
        {
          "name": "",
          "type": "bytes4"
        }
      ],
      "name": "providers",
      "outputs": [
        {
          "name": "",
          "type": "address"
        }
      ],
      "payable": false,
      "stateMutability": "view",
      "type": "function"
    },
    {
      "constant": true,
      "inputs": [
        {
          "name": "",
          "type": "bytes4"
        }
      ],
      "name": "parameters",
      "outputs": [
        {
          "name": "",
          "type": "uint256"
        }
      ],
      "payable": false,
      "stateMutability": "view",
      "type": "function"
    },
    {
      "constant": false,
      "inputs": [],
      "name": "renounceOwnership",
      "outputs": [],
      "payable": false,
      "stateMutability": "nonpayable",
      "type": "function"
    },
    {
      "constant": true,
      "inputs": [],
      "name": "owner",
      "outputs": [
        {
          "name": "",
          "type": "address"
        }
      ],
      "payable": false,
      "stateMutability": "view",
      "type": "function"
    },
    {
      "constant": true,
      "inputs": [],
      "name": "isOwner",
      "outputs": [
        {
          "name": "",
          "type": "bool"
        }
      ],
      "payable": false,
      "stateMutability": "view",
      "type": "function"
    },
    {
      "constant": false,
      "inputs": [
        {
          "name": "newOwner",
          "type": "address"
        }
      ],
      "name": "transferOwnership",
      "outputs": [],
      "payable": false,
      "stateMutability": "nonpayable",
      "type": "function"
    },
    {
      "anonymous": false,
      "inputs": [
        {
          "indexed": true,
          "name": "previousOwner",
          "type": "address"
        },
        {
          "indexed": true,
          "name": "newOwner",
          "type": "address"
        }
      ],
      "name": "OwnershipTransferred",
      "type": "event"
    },
    {
      "constant": true,
      "inputs": [
        {
          "name": "_key",
          "type": "string"
        }
      ],
      "name": "getProvider",
      "outputs": [
        {
          "name": "",
          "type": "address"
        }
      ],
      "payable": false,
      "stateMutability": "view",
      "type": "function"
    },
    {
      "constant": false,
      "inputs": [
        {
          "name": "_key",
          "type": "string"
        },
        {
          "name": "_addr",
          "type": "address"
        }
      ],
      "name": "setProvider",
      "outputs": [],
      "payable": false,
      "stateMutability": "nonpayable",
      "type": "function"
    },
    {
      "constant": true,
      "inputs": [
        {
          "name": "_key",
          "type": "string"
        }
      ],
      "name": "getParameter",
      "outputs": [
        {
          "name": "",
          "type": "uint256"
        }
      ],
      "payable": false,
      "stateMutability": "view",
      "type": "function"
    },
    {
      "constant": false,
      "inputs": [
        {
          "name": "_key",
          "type": "string"
        },
        {
          "name": "_param",
          "type": "uint256"
        }
      ],
      "name": "setParameter",
      "outputs": [],
      "payable": false,
      "stateMutability": "nonpayable",
      "type": "function"
    }
  ],
  "bytecode": "0x6080604081905260008054600160a060020a0319163317808255600160a060020a0316917f8be0079c531659141344cd1fd0a4f28419497f9722a3daafe3b4186f6b6457e0908290a3610a8b806100576000396000f3fe6080604052600436106100a35763ffffffff7c0100000000000000000000000000000000000000000000000000000000600035041663163a8ba781146100a85780631c124e511461010d57806340ca6c25146101c45780634df79b0b1461021f57806350cadc85146102dd578063715018a6146103905780638da5cb5b146103a55780638f32d59b146103ba5780639e647aac146103e3578063f2fde38b14610496575b600080fd5b3480156100b457600080fd5b506100f1600480360360208110156100cb57600080fd5b50357bffffffffffffffffffffffffffffffffffffffffffffffffffffffff19166104c9565b60408051600160a060020a039092168252519081900360200190f35b34801561011957600080fd5b506101c26004803603604081101561013057600080fd5b81019060208101813564010000000081111561014b57600080fd5b82018360208201111561015d57600080fd5b8035906020019184600183028401116401000000008311171561017f57600080fd5b91908080601f01602080910402602001604051908101604052809392919081815260200183838082843760009201919091525092955050913592506104e4915050565b005b3480156101d057600080fd5b5061020d600480360360208110156101e757600080fd5b50357bffffffffffffffffffffffffffffffffffffffffffffffffffffffff19166105cd565b60408051918252519081900360200190f35b34801561022b57600080fd5b506101c26004803603604081101561024257600080fd5b81019060208101813564010000000081111561025d57600080fd5b82018360208201111561026f57600080fd5b8035906020019184600183028401116401000000008311171561029157600080fd5b91908080601f01602080910402602001604051908101604052809392919081815260200183838082843760009201919091525092955050509035600160a060020a031691506105df9050565b3480156102e957600080fd5b506100f16004803603602081101561030057600080fd5b81019060208101813564010000000081111561031b57600080fd5b82018360208201111561032d57600080fd5b8035906020019184600183028401116401000000008311171561034f57600080fd5b91908080601f0160208091040260200160405190810160405280939291908181526020018383808284376000920191909152509295506106e8945050505050565b34801561039c57600080fd5b506101c2610798565b3480156103b157600080fd5b506100f161083b565b3480156103c657600080fd5b506103cf61084a565b604080519115158252519081900360200190f35b3480156103ef57600080fd5b5061020d6004803603602081101561040657600080fd5b81019060208101813564010000000081111561042157600080fd5b82018360208201111561043357600080fd5b8035906020019184600183028401116401000000008311171561045557600080fd5b91908080601f01602080910402602001604051908101604052809392919081815260200183838082843760009201919091525092955061085b945050505050565b3480156104a257600080fd5b506101c2600480360360208110156104b957600080fd5b5035600160a060020a03166108f9565b600160205260009081526040902054600160a060020a031681565b6104ec61084a565b1515610530576040805160e560020a62461bcd0281526020600482018190526024820152600080516020610a40833981519152604482015290519081900360640190fd5b8060026000846040516020018082805190602001908083835b602083106105685780518252601f199092019160209182019101610549565b6001836020036101000a03801982511681845116808217855250505050505090500191505060405160208183030381529060405280519060200120600160e060020a031916600160e060020a0319168152602001908152602001600020819055505050565b60026020526000908152604090205481565b6105e761084a565b151561062b576040805160e560020a62461bcd0281526020600482018190526024820152600080516020610a40833981519152604482015290519081900360640190fd5b8060016000846040516020018082805190602001908083835b602083106106635780518252601f199092019160209182019101610644565b6001836020036101000a03801982511681845116808217855250505050505090500191505060405160208183030381529060405280519060200120600160e060020a031916600160e060020a031916815260200190815260200160002060006101000a815481600160a060020a030219169083600160a060020a031602179055505050565b600060016000836040516020018082805190602001908083835b602083106107215780518252601f199092019160209182019101610702565b51815160209384036101000a60001901801990921691161790526040805192909401828103601f1901835284528151918101919091207bffffffffffffffffffffffffffffffffffffffffffffffffffffffff191686528501959095529290920160002054600160a060020a031695945050505050565b6107a061084a565b15156107e4576040805160e560020a62461bcd0281526020600482018190526024820152600080516020610a40833981519152604482015290519081900360640190fd5b60008054604051600160a060020a03909116907f8be0079c531659141344cd1fd0a4f28419497f9722a3daafe3b4186f6b6457e0908390a36000805473ffffffffffffffffffffffffffffffffffffffff19169055565b600054600160a060020a031690565b600054600160a060020a0316331490565b600060026000836040516020018082805190602001908083835b602083106108945780518252601f199092019160209182019101610875565b6001836020036101000a03801982511681845116808217855250505050505090500191505060405160208183030381529060405280519060200120600160e060020a031916600160e060020a0319168152602001908152602001600020549050919050565b61090161084a565b1515610945576040805160e560020a62461bcd0281526020600482018190526024820152600080516020610a40833981519152604482015290519081900360640190fd5b61094e81610951565b50565b600160a060020a03811615156109d7576040805160e560020a62461bcd02815260206004820152602660248201527f4f776e61626c653a206e6577206f776e657220697320746865207a65726f206160448201527f6464726573730000000000000000000000000000000000000000000000000000606482015290519081900360840190fd5b60008054604051600160a060020a03808516939216917f8be0079c531659141344cd1fd0a4f28419497f9722a3daafe3b4186f6b6457e091a36000805473ffffffffffffffffffffffffffffffffffffffff1916600160a060020a039290921691909117905556fe4f776e61626c653a2063616c6c6572206973206e6f7420746865206f776e6572a165627a7a72305820ab455b00ad1325eb84e60d65da656a3af3197c6b3e44b15a6fd3ff47dc9626ec0029",
  "source": "pragma solidity 0.5.0;\n\nimport \"openzeppelin-solidity/contracts/ownership/Ownable.sol\";\n\n/**\n * @title Configurable smart contract.\n * @notice The configuration holds two different type of attributes - providers and parameters. Providers are addresses of other contracts that are being called as services, parameters are specific configuration parameters stored as uint256.\n * @author Aave\n */\n\ncontract Configurable is Ownable {\n\n\n    mapping(bytes4 => address) public providers;\n    mapping(bytes4 => uint256) public parameters;\n\n\n    function getProvider(string memory _key) public view returns (address) {\n        return providers[bytes4(keccak256(abi.encodePacked(_key)))];\n    }\n\n    function setProvider(string memory _key, address _addr) public onlyOwner {\n        providers[bytes4(keccak256(abi.encodePacked(_key)))] = _addr;\n    }\n\n    function getParameter(string memory _key) public view returns (uint256) {\n        return parameters[bytes4(keccak256(abi.encodePacked(_key)))];\n    }\n\n    function setParameter(string memory _key, uint _param) public onlyOwner {\n        parameters[bytes4(keccak256(abi.encodePacked(_key)))] = _param;\n    }\n\n\n}\n",
  "sourcePath": "/home/nimrod/SandBox/ethereum/aave/governance/contracts/configuration/base/Configurable.sol",
  "compiler": {
    "name": "solc",
    "version": "0.5.0+commit.1d4f565a.Emscripten.clang"
  },
  "schemaVersion": "3.0.11",
  "updatedAt": "2019-07-30T11:31:21.241Z",
  "devdoc": {
    "author": "Aave",
    "methods": {
      "isOwner()": {
        "details": "Returns true if the caller is the current owner."
      },
      "owner()": {
        "details": "Returns the address of the current owner."
      },
      "renounceOwnership()": {
        "details": "Leaves the contract without owner. It will not be possible to call `onlyOwner` functions anymore. Can only be called by the current owner.     * > Note: Renouncing ownership will leave the contract without an owner, thereby removing any functionality that is only available to the owner."
      },
      "transferOwnership(address)": {
        "details": "Transfers ownership of the contract to a new account (`newOwner`). Can only be called by the current owner."
      }
    },
    "title": "Configurable smart contract."
  },
  "userdoc": {
    "methods": {},
    "notice": "The configuration holds two different type of attributes - providers and parameters. Providers are addresses of other contracts that are being called as services, parameters are specific configuration parameters stored as uint256."
  }
}