{
  "contractName": "DLL",
  "abi": [
    {
      "constant": false,
      "inputs": [
        {
          "name": "self",
          "type": "DLL.Data storage"
        },
        {
          "name": "prev",
          "type": "uint256"
        },
        {
          "name": "curr",
          "type": "uint256"
        },
        {
          "name": "next",
          "type": "uint256"
        }
      ],
      "name": "insert",
      "outputs": [],
      "payable": false,
      "stateMutability": "nonpayable",
      "type": "function"
    },
    {
      "constant": false,
      "inputs": [
        {
          "name": "self",
          "type": "DLL.Data storage"
        },
        {
          "name": "curr",
          "type": "uint256"
        }
      ],
      "name": "remove",
      "outputs": [],
      "payable": false,
      "stateMutability": "nonpayable",
      "type": "function"
    },
    {
      "constant": true,
      "inputs": [
        {
          "name": "self",
          "type": "DLL.Data storage"
        },
        {
          "name": "curr",
          "type": "uint256"
        }
      ],
      "name": "getNext",
      "outputs": [
        {
          "name": "",
          "type": "uint256"
        }
      ],
      "payable": false,
      "stateMutability": "view",
      "type": "function"
    },
    {
      "constant": true,
      "inputs": [
        {
          "name": "self",
          "type": "DLL.Data storage"
        },
        {
          "name": "curr",
          "type": "uint256"
        }
      ],
      "name": "getPrev",
      "outputs": [
        {
          "name": "",
          "type": "uint256"
        }
      ],
      "payable": false,
      "stateMutability": "view",
      "type": "function"
    }
  ],
  "bytecode": "0x6102dd610030600b82828239805160001a6073146000811461002057610022565bfe5b5030600052607381538281f3fe73000000000000000000000000000000000000000030146080604052600436106100785763ffffffff7c010000000000000000000000000000000000000000000000000000000060003504166307d29ac9811461007d57806330fe0a0a146100b25780636d900ed0146100d55780639735c51b14610107575b600080fd5b6100a06004803603604081101561009357600080fd5b5080359060200135610143565b60408051918252519081900360200190f35b6100a0600480360360408110156100c857600080fd5b5080359060200135610159565b8180156100e157600080fd5b50610105600480360360408110156100f857600080fd5b5080359060200135610172565b005b81801561011357600080fd5b506101056004803603608081101561012a57600080fd5b5080359060208101359060408101359060600135610259565b6000908152600391909101602052604090205490565b6000908152600391909101602052604090206001015490565b60028201546000106101e557604080517f08c379a000000000000000000000000000000000000000000000000000000000815260206004820152600a60248201527f656d707479206c69737400000000000000000000000000000000000000000000604482015290519081900360640190fd5b60006101f18383610143565b905060006101ff8484610159565b60008381526003860160205260408082206001908101849055838352818320869055868352912085815501849055905080151561023a578184555b81151561024957600184018190555b5050506002018054600019019055565b6000828152600385016020526040808220600180820187905590849055858352818320859055838352912001829055821515610293578184555b8015156102a257600184018290555b5050506002018054600101905556fea165627a7a7230582094e34fbf12a9ebcdbafc2ed973d53837f8249981f154dfde522fd67a915dbc230029",
  "source": "pragma solidity 0.5.0;\n\n/**\n * @title DLL\n * @notice Library with basic functionalities of double linked list.\n * @author Anibal Catalán <anibalcatalanf@gmail.com>.\n *\n * Originally base on code by skmgoldin\n * https://gist.github.com/skmgoldin/74ce9932893ca3918d0a218c711517b5\n */\n\nlibrary DLL {\n    struct Node {\n        uint256 next;\n        uint256 prev;\n    }\n    \n    struct Data {\n        uint256 first;\n        uint256 last;\n        uint256 count;\n        mapping(uint256 => Node) dll;\n    }\n    \n    /**\n     * @notice Insert node to the list.\n     * @param self struct defined in the contract that is using this library.\n     * @param prev previus node.\n     * @param curr current node.\n     * @param next next node.\n     */\n    function insert(Data storage self, uint256 prev, uint256 curr, uint256 next) public {\n        self.dll[curr].prev = prev;\n        self.dll[curr].next = next;\n        \n        self.dll[prev].next = curr;\n        self.dll[next].prev = curr;\n\n        if (prev == 0) {\n            self.first = curr;\n        }\n\n        if (next == 0) {\n            self.last = curr;\n        }\n\n        self.count = self.count + 1;\n    }\n    \n    /**\n     * @notice Remove node from the list.\n     * @param self struct defined in the contract that is using this library.\n     * @param curr current node.\n     */\n    function remove(Data storage self, uint256 curr) public {\n        require(self.count > 0, \"empty list\");\n        uint256 next = getNext(self, curr);\n        uint256 prev = getPrev(self, curr);\n        \n        self.dll[next].prev = prev;\n        self.dll[prev].next = next;\n        \n        self.dll[curr].next = curr;\n        self.dll[curr].prev = curr;\n        \n        if (prev == 0) {\n            self.first = next;\n        }\n\n        if (next == 0) {\n            self.last = prev;\n        }\n\n        self.count = self.count - 1;\n    }\n    \n    /**\n     * @notice Return next node.\n     * @param self struct defined in the contract that is using this library.\n     * @param curr current node.\n     * @return node identifier.\n     */\n    function getNext(Data storage self, uint256 curr) public view returns (uint256) {\n        return self.dll[curr].next;\n    }\n    \n    /**\n     * @notice Return previus node.\n     * @param self struct defined in the contract that is using this library.\n     * @param curr current node.\n     * @return node identifier. \n     */\n    function getPrev(Data storage self, uint256 curr) public view returns (uint256) {\n        return self.dll[curr].prev;\n    }\n}\n",
  "sourcePath": "/home/nimrod/SandBox/ethereum/aave/governance/contracts/DLL.sol",
  "compiler": {
    "name": "solc",
    "version": "0.5.0+commit.1d4f565a.Emscripten.clang"
  },
  "schemaVersion": "3.0.11",
  "updatedAt": "2019-07-30T11:31:24.606Z",
  "devdoc": {
    "author": "Anibal Catalán <anibalcatalanf@gmail.com>. * Originally base on code by skmgoldin https://gist.github.com/skmgoldin/74ce9932893ca3918d0a218c711517b5",
    "methods": {
      "getNext(DLL.Data storage,uint256)": {
        "params": {
          "curr": "current node.",
          "self": "struct defined in the contract that is using this library."
        },
        "return": "node identifier."
      },
      "getPrev(DLL.Data storage,uint256)": {
        "params": {
          "curr": "current node.",
          "self": "struct defined in the contract that is using this library."
        },
        "return": "node identifier. "
      },
      "insert(DLL.Data storage,uint256,uint256,uint256)": {
        "params": {
          "curr": "current node.",
          "next": "next node.",
          "prev": "previus node.",
          "self": "struct defined in the contract that is using this library."
        }
      },
      "remove(DLL.Data storage,uint256)": {
        "params": {
          "curr": "current node.",
          "self": "struct defined in the contract that is using this library."
        }
      }
    },
    "title": "DLL"
  },
  "userdoc": {
    "methods": {
      "getNext(DLL.Data storage,uint256)": {
        "notice": "Return next node."
      },
      "getPrev(DLL.Data storage,uint256)": {
        "notice": "Return previus node."
      },
      "insert(DLL.Data storage,uint256,uint256,uint256)": {
        "notice": "Insert node to the list."
      },
      "remove(DLL.Data storage,uint256)": {
        "notice": "Remove node from the list."
      }
    },
    "notice": "Library with basic functionalities of double linked list."
  }
}