{
  "contractName": "Pool",
  "abi": [
    {
      "constant": true,
      "inputs": [],
      "name": "roles",
      "outputs": [
        {
          "name": "",
          "type": "address"
        }
      ],
      "payable": false,
      "stateMutability": "view",
      "type": "function"
    },
    {
      "constant": true,
      "inputs": [],
      "name": "interest",
      "outputs": [
        {
          "name": "",
          "type": "uint256"
        }
      ],
      "payable": false,
      "stateMutability": "view",
      "type": "function"
    },
    {
      "inputs": [
        {
          "name": "_roles",
          "type": "address"
        }
      ],
      "payable": false,
      "stateMutability": "nonpayable",
      "type": "constructor"
    },
    {
      "constant": true,
      "inputs": [
        {
          "name": "sender",
          "type": "address"
        },
        {
          "name": "_code",
          "type": "address"
        },
        {
          "name": "_sig",
          "type": "bytes4"
        },
        {
          "name": "_datas",
          "type": "bytes[]"
        }
      ],
      "name": "isValidPoll",
      "outputs": [
        {
          "name": "",
          "type": "bool"
        }
      ],
      "payable": false,
      "stateMutability": "view",
      "type": "function"
    },
    {
      "constant": true,
      "inputs": [
        {
          "name": "sender",
          "type": "address"
        },
        {
          "name": "_code",
          "type": "address"
        },
        {
          "name": "_sig",
          "type": "bytes4"
        },
        {
          "name": "_datas",
          "type": "bytes[]"
        }
      ],
      "name": "getPollDuration",
      "outputs": [
        {
          "name": "",
          "type": "uint256"
        }
      ],
      "payable": false,
      "stateMutability": "view",
      "type": "function"
    },
    {
      "constant": true,
      "inputs": [
        {
          "name": "sender",
          "type": "address"
        },
        {
          "name": "_code",
          "type": "address"
        },
        {
          "name": "_sig",
          "type": "bytes4"
        },
        {
          "name": "_datas",
          "type": "bytes[]"
        }
      ],
      "name": "getVoteWeight",
      "outputs": [
        {
          "name": "",
          "type": "uint256"
        }
      ],
      "payable": false,
      "stateMutability": "view",
      "type": "function"
    },
    {
      "constant": true,
      "inputs": [
        {
          "name": "_code",
          "type": "address"
        },
        {
          "name": "_sig",
          "type": "bytes4"
        },
        {
          "name": "_datas",
          "type": "bytes[]"
        }
      ],
      "name": "getQuorum",
      "outputs": [
        {
          "name": "",
          "type": "uint256"
        }
      ],
      "payable": false,
      "stateMutability": "view",
      "type": "function"
    },
    {
      "constant": false,
      "inputs": [
        {
          "name": "newInterest",
          "type": "uint256"
        }
      ],
      "name": "setInterest",
      "outputs": [],
      "payable": false,
      "stateMutability": "nonpayable",
      "type": "function"
    }
  ],
  "bytecode": "0x608060405234801561001057600080fd5b50604051602080610814833981018060405261002f91908101906100b7565b600160a060020a038116151561007a576040517f08c379a00000000000000000000000000000000000000000000000000000000081526004016100719061010d565b60405180910390fd5b60008054600160a060020a031916600160a060020a0392909216919091179055600360015561013a565b60006100b0825161012f565b9392505050565b6000602082840312156100c957600080fd5b60006100d584846100a4565b949350505050565b601681527f696e76616c6964205f726f6c6573206164647265737300000000000000000000602082015260400190565b6020808252810161011d816100dd565b92915050565b600160a060020a031690565b600061011d82610123565b6106cb806101496000396000f3fe6080604052600436106100825763ffffffff7c01000000000000000000000000000000000000000000000000000000006000350416631d08672081146100875780632c9d575e146100a957806331c3622a146100df578063392f5f64146100ff5780637d1d252f14610121578063b0e3f7e61461014e578063c392f7661461016e575b600080fd5b34801561009357600080fd5b506100a76100a23660046104cd565b610183565b005b3480156100b557600080fd5b506100c96100c43660046103d1565b610293565b6040516100d691906105a8565b60405180910390f35b3480156100eb57600080fd5b506100c96100fa36600461044a565b61029f565b34801561010b57600080fd5b506101146102a8565b6040516100d6919061054e565b34801561012d57600080fd5b5061014161013c3660046103d1565b6102c4565b6040516100d6919061058a565b34801561015a57600080fd5b506100c96101693660046103d1565b6102ce565b34801561017a57600080fd5b506100c96102d9565b600080546040517fe99f5b1600000000000000000000000000000000000000000000000000000000815273ffffffffffffffffffffffffffffffffffffffff9091169163e99f5b16916101fd9133913091357bffffffffffffffffffffffffffffffffffffffffffffffffffffffff191690600401610562565b60206040518083038186803b15801561021557600080fd5b505afa158015610229573d6000803e3d6000fd5b505050506040513d601f19601f8201168201806040525061024d91908101906104af565b151561028e576040517f08c379a000000000000000000000000000000000000000000000000000000000815260040161028590610598565b60405180910390fd5b600155565b6103e85b949350505050565b60329392505050565b60005473ffffffffffffffffffffffffffffffffffffffff1681565b6001949350505050565b612a30949350505050565b60015481565b60006102eb8235610626565b9392505050565b6000601f8201831361030357600080fd5b8135610316610311826105dd565b6105b6565b81815260209384019390925082018360005b83811015610354578135860161033e8882610376565b8452506020928301929190910190600101610328565b5050505092915050565b60006102eb8251610631565b60006102eb8235610636565b6000601f8201831361038757600080fd5b8135610395610311826105fe565b915080825260208301602083018583830111156103b157600080fd5b6103bc838284610685565b50505092915050565b60006102eb8235610671565b600080600080608085870312156103e757600080fd5b60006103f387876102df565b9450506020610404878288016102df565b93505060406104158782880161036a565b925050606085013567ffffffffffffffff81111561043257600080fd5b61043e878288016102f2565b91505092959194509250565b60008060006060848603121561045f57600080fd5b600061046b86866102df565b935050602061047c8682870161036a565b925050604084013567ffffffffffffffff81111561049957600080fd5b6104a5868287016102f2565b9150509250925092565b6000602082840312156104c157600080fd5b6000610297848461035e565b6000602082840312156104df57600080fd5b600061029784846103c5565b6104f481610674565b82525050565b6104f481610626565b6104f481610631565b6104f481610636565b601a81527f756e617574686f72697a65642066756e6374696f6e2063616c6c000000000000602082015260400190565b6104f481610671565b6020810161055c82846104fa565b92915050565b6060810161057082866104eb565b61057d60208301856104fa565b610297604083018461050c565b6020810161055c8284610503565b6020808252810161055c81610515565b6020810161055c8284610545565b60405181810167ffffffffffffffff811182821017156105d557600080fd5b604052919050565b600067ffffffffffffffff8211156105f457600080fd5b5060209081020190565b600067ffffffffffffffff82111561061557600080fd5b506020601f91909101601f19160190565b600061055c82610658565b151590565b7bffffffffffffffffffffffffffffffffffffffffffffffffffffffff191690565b73ffffffffffffffffffffffffffffffffffffffff1690565b90565b600061055c82600061055c82610626565b8281833750600091015256fea265627a7a723058206d3559873fe87d8070f745a8d0d0700ae5581f8671b59540afe75e1396ece3ac6c6578706572696d656e74616cf50037",
  "source": "pragma solidity 0.5.0;\npragma experimental ABIEncoderV2;\n\nimport \"./Roles.sol\";\n\n/**\n * @title Pool.\n * @notice Dummy Pool.\n * @author Anibal Catalán <anibalcatalanf@gmail.com>.\n */\n\ncontract Pool {\n    address public roles;\n    uint256 public interest;\n\n    constructor(address _roles) public {\n\trequire(_roles != address(0), \"invalid _roles address\");\n\troles = _roles;\n        interest = 3;\n    }\n\n    function isValidPoll(address sender, address _code, bytes4 _sig, bytes[] memory _datas) public view returns (bool) {\n\treturn true;\n    }\n\n    function getPollDuration(address sender, address _code, bytes4 _sig, bytes[] memory _datas) public view returns (uint256) {\n\treturn 3 hours;\n    }\n\n    function getVoteWeight(address sender, address _code, bytes4 _sig, bytes[] memory _datas) public view returns (uint256) {\n\treturn 1000;\n    }\n\n    function getQuorum(address _code, bytes4 _sig, bytes[] memory _datas) public view returns (uint256) {\n\treturn 50; \n    }\n\n    function setInterest (uint256 newInterest) public onlyAuth {\n\tinterest = newInterest;\n    }\n\n    modifier onlyAuth {\n        require(Roles(roles).isAuthorized(msg.sender, address(this), msg.sig), \"unauthorized function call\");\n\t_;\n    } \n}\n",
  "sourcePath": "/home/nimrod/SandBox/ethereum/aave/governance/contracts/Pool.sol",
  "compiler": {
    "name": "solc",
    "version": "0.5.0+commit.1d4f565a.Emscripten.clang"
  },
  "schemaVersion": "3.0.11",
  "updatedAt": "2019-07-30T11:31:32.222Z",
  "devdoc": {
    "author": "Anibal Catalán <anibalcatalanf@gmail.com>.",
    "methods": {},
    "title": "Pool."
  },
  "userdoc": {
    "methods": {},
    "notice": "Dummy Pool."
  }
}