{
  "contractName": "Roles",
  "abi": [
    {
      "constant": false,
      "inputs": [
        {
          "name": "_owner",
          "type": "address"
        }
      ],
      "name": "setOwner",
      "outputs": [],
      "payable": false,
      "stateMutability": "nonpayable",
      "type": "function"
    },
    {
      "constant": true,
      "inputs": [
        {
          "name": "",
          "type": "address"
        },
        {
          "name": "",
          "type": "bytes4"
        }
      ],
      "name": "capabilityRoles",
      "outputs": [
        {
          "name": "",
          "type": "bytes32"
        }
      ],
      "payable": false,
      "stateMutability": "view",
      "type": "function"
    },
    {
      "constant": true,
      "inputs": [
        {
          "name": "",
          "type": "address"
        },
        {
          "name": "",
          "type": "bytes4"
        }
      ],
      "name": "publicCapabilities",
      "outputs": [
        {
          "name": "",
          "type": "bool"
        }
      ],
      "payable": false,
      "stateMutability": "view",
      "type": "function"
    },
    {
      "constant": true,
      "inputs": [
        {
          "name": "",
          "type": "address"
        }
      ],
      "name": "userRoles",
      "outputs": [
        {
          "name": "",
          "type": "bytes32"
        }
      ],
      "payable": false,
      "stateMutability": "view",
      "type": "function"
    },
    {
      "constant": false,
      "inputs": [
        {
          "name": "_authority",
          "type": "address"
        }
      ],
      "name": "setAuthority",
      "outputs": [],
      "payable": false,
      "stateMutability": "nonpayable",
      "type": "function"
    },
    {
      "constant": true,
      "inputs": [],
      "name": "owner",
      "outputs": [
        {
          "name": "",
          "type": "address"
        }
      ],
      "payable": false,
      "stateMutability": "view",
      "type": "function"
    },
    {
      "constant": true,
      "inputs": [],
      "name": "authority",
      "outputs": [
        {
          "name": "",
          "type": "address"
        }
      ],
      "payable": false,
      "stateMutability": "view",
      "type": "function"
    },
    {
      "constant": true,
      "inputs": [
        {
          "name": "src",
          "type": "address"
        },
        {
          "name": "dst",
          "type": "address"
        },
        {
          "name": "sig",
          "type": "bytes4"
        }
      ],
      "name": "isAuthorized",
      "outputs": [
        {
          "name": "",
          "type": "bool"
        }
      ],
      "payable": false,
      "stateMutability": "view",
      "type": "function"
    },
    {
      "inputs": [],
      "payable": false,
      "stateMutability": "nonpayable",
      "type": "constructor"
    },
    {
      "anonymous": false,
      "inputs": [
        {
          "indexed": true,
          "name": "who",
          "type": "address"
        },
        {
          "indexed": false,
          "name": "roles",
          "type": "bytes32"
        }
      ],
      "name": "LogSetUserRole",
      "type": "event"
    },
    {
      "anonymous": false,
      "inputs": [
        {
          "indexed": true,
          "name": "code",
          "type": "address"
        },
        {
          "indexed": false,
          "name": "signature",
          "type": "bytes4"
        },
        {
          "indexed": false,
          "name": "enabled",
          "type": "bool"
        }
      ],
      "name": "LogSetPublicCapability",
      "type": "event"
    },
    {
      "anonymous": false,
      "inputs": [
        {
          "indexed": true,
          "name": "code",
          "type": "address"
        },
        {
          "indexed": false,
          "name": "signature",
          "type": "bytes4"
        },
        {
          "indexed": false,
          "name": "roles",
          "type": "bytes32"
        }
      ],
      "name": "LogSetRoleCapability",
      "type": "event"
    },
    {
      "anonymous": false,
      "inputs": [
        {
          "indexed": true,
          "name": "authority",
          "type": "address"
        }
      ],
      "name": "LogSetAuthority",
      "type": "event"
    },
    {
      "anonymous": false,
      "inputs": [
        {
          "indexed": true,
          "name": "owner",
          "type": "address"
        }
      ],
      "name": "LogSetOwner",
      "type": "event"
    },
    {
      "constant": false,
      "inputs": [
        {
          "name": "who",
          "type": "address"
        },
        {
          "name": "role",
          "type": "uint8"
        },
        {
          "name": "enabled",
          "type": "bool"
        }
      ],
      "name": "setUserRole",
      "outputs": [],
      "payable": false,
      "stateMutability": "nonpayable",
      "type": "function"
    },
    {
      "constant": false,
      "inputs": [
        {
          "name": "code",
          "type": "address"
        },
        {
          "name": "sig",
          "type": "bytes4"
        },
        {
          "name": "enabled",
          "type": "bool"
        }
      ],
      "name": "setPublicCapability",
      "outputs": [],
      "payable": false,
      "stateMutability": "nonpayable",
      "type": "function"
    },
    {
      "constant": false,
      "inputs": [
        {
          "name": "role",
          "type": "uint8"
        },
        {
          "name": "code",
          "type": "address"
        },
        {
          "name": "sig",
          "type": "bytes4"
        },
        {
          "name": "enabled",
          "type": "bool"
        }
      ],
      "name": "setRoleCapability",
      "outputs": [],
      "payable": false,
      "stateMutability": "nonpayable",
      "type": "function"
    },
    {
      "constant": true,
      "inputs": [
        {
          "name": "who",
          "type": "address"
        }
      ],
      "name": "getUserRoles",
      "outputs": [
        {
          "name": "",
          "type": "bytes32"
        }
      ],
      "payable": false,
      "stateMutability": "view",
      "type": "function"
    },
    {
      "constant": true,
      "inputs": [
        {
          "name": "code",
          "type": "address"
        },
        {
          "name": "sig",
          "type": "bytes4"
        }
      ],
      "name": "getCapabilityRoles",
      "outputs": [
        {
          "name": "",
          "type": "bytes32"
        }
      ],
      "payable": false,
      "stateMutability": "view",
      "type": "function"
    },
    {
      "constant": true,
      "inputs": [
        {
          "name": "code",
          "type": "address"
        },
        {
          "name": "sig",
          "type": "bytes4"
        }
      ],
      "name": "isCapabilityPublic",
      "outputs": [
        {
          "name": "",
          "type": "bool"
        }
      ],
      "payable": false,
      "stateMutability": "view",
      "type": "function"
    },
    {
      "constant": true,
      "inputs": [
        {
          "name": "who",
          "type": "address"
        },
        {
          "name": "role",
          "type": "uint8"
        }
      ],
      "name": "hasUserRole",
      "outputs": [
        {
          "name": "",
          "type": "bool"
        }
      ],
      "payable": false,
      "stateMutability": "view",
      "type": "function"
    },
    {
      "constant": true,
      "inputs": [
        {
          "name": "caller",
          "type": "address"
        },
        {
          "name": "code",
          "type": "address"
        },
        {
          "name": "sig",
          "type": "bytes4"
        }
      ],
      "name": "canCall",
      "outputs": [
        {
          "name": "",
          "type": "bool"
        }
      ],
      "payable": false,
      "stateMutability": "view",
      "type": "function"
    }
  ],
  "bytecode": "0x608060405234801561001057600080fd5b5060018054600160a060020a031916331790819055604051600160a060020a0391909116907fce241d7ca1f669fee44b6fc00b8eba2df3bb514eed0f6f668f8f89096e81ed9490600090a261006d30640100000000610072810204565b61026a565b6100aa33307fffffffff0000000000000000000000000000000000000000000000000000000060003516640100000000610163810204565b151561011757604080517f08c379a000000000000000000000000000000000000000000000000000000000815260206004820152601a60248201527f756e617574686f72697a65642066756e6374696f6e2063616c6c000000000000604482015290519081900360640190fd5b60008054600160a060020a031916600160a060020a03838116919091178083556040519116917f1abebea81bfa2637f28358c371278fb15ede7ea8dd28d2e03b112ff6d936ada491a250565b600154600090600160a060020a038581169116141561018457506001610263565b600054600160a060020a0316151561019e57506000610263565b600054604080517fb7009613000000000000000000000000000000000000000000000000000000008152600160a060020a03878116600483015286811660248301527fffffffff00000000000000000000000000000000000000000000000000000000861660448301529151919092169163b7009613916064808301926020929190829003018186803b15801561023457600080fd5b505afa158015610248573d6000803e3d6000fd5b505050506040513d602081101561025e57600080fd5b505190505b9392505050565b610c63806102796000396000f3fe6080604052600436106100e55763ffffffff7c010000000000000000000000000000000000000000000000000000000060003504166306a36aee81146100ea57806313af40351461012f57806316d44ba11461016457806327538e90146101a75780632f47571f146101ea57806350052ad51461024157806367aff4841461028457806374d5e100146102c85780637a9e5e4b146102fb5780637d40583d1461032e5780638da5cb5b14610382578063a078f737146103b3578063b7009613146103ef578063bf7e214f1461043d578063c6b0263e14610452578063e99f5b161461049d575b600080fd5b3480156100f657600080fd5b5061011d6004803603602081101561010d57600080fd5b5035600160a060020a03166104eb565b60408051918252519081900360200190f35b34801561013b57600080fd5b506101626004803603602081101561015257600080fd5b5035600160a060020a0316610506565b005b34801561017057600080fd5b5061011d6004803603604081101561018757600080fd5b508035600160a060020a03169060200135600160e060020a0319166105be565b3480156101b357600080fd5b5061011d600480360360408110156101ca57600080fd5b508035600160a060020a03169060200135600160e060020a0319166105db565b3480156101f657600080fd5b5061022d6004803603604081101561020d57600080fd5b508035600160a060020a03169060200135600160e060020a03191661060f565b604080519115158252519081900360200190f35b34801561024d57600080fd5b5061022d6004803603604081101561026457600080fd5b508035600160a060020a03169060200135600160e060020a031916610646565b34801561029057600080fd5b50610162600480360360608110156102a757600080fd5b50600160a060020a038135169060ff60208201351690604001351515610666565b3480156102d457600080fd5b5061011d600480360360208110156102eb57600080fd5b5035600160a060020a0316610788565b34801561030757600080fd5b506101626004803603602081101561031e57600080fd5b5035600160a060020a031661079a565b34801561033a57600080fd5b506101626004803603608081101561035157600080fd5b5060ff81351690600160a060020a0360208201351690600160e060020a03196040820135169060600135151561084e565b34801561038e57600080fd5b506103976109c8565b60408051600160a060020a039092168252519081900360200190f35b3480156103bf57600080fd5b5061022d600480360360408110156103d657600080fd5b508035600160a060020a0316906020013560ff166109d7565b3480156103fb57600080fd5b5061022d6004803603606081101561041257600080fd5b508035600160a060020a039081169160208101359091169060400135600160e060020a0319166109f6565b34801561044957600080fd5b50610397610a3e565b34801561045e57600080fd5b506101626004803603606081101561047557600080fd5b50600160a060020a0381351690600160e060020a031960208201351690604001351515610a4d565b3480156104a957600080fd5b5061022d600480360360608110156104c057600080fd5b508035600160a060020a039081169160208101359091169060400135600160e060020a031916610b24565b600160a060020a031660009081526002602052604090205490565b61051d3330600035600160e060020a031916610b24565b1515610561576040805160e560020a62461bcd02815260206004820152601a6024820152600080516020610c18833981519152604482015290519081900360640190fd5b6001805473ffffffffffffffffffffffffffffffffffffffff1916600160a060020a0383811691909117918290556040519116907fce241d7ca1f669fee44b6fc00b8eba2df3bb514eed0f6f668f8f89096e81ed9490600090a250565b600360209081526000928352604080842090915290825290205481565b600160a060020a0382166000908152600360209081526040808320600160e060020a03198516845290915290205492915050565b600160a060020a0382166000908152600460209081526040808320600160e060020a03198516845290915290205460ff1692915050565b600460209081526000928352604080842090915290825290205460ff1681565b61067d3330600035600160e060020a031916610b24565b15156106c1576040805160e560020a62461bcd02815260206004820152601a6024820152600080516020610c18833981519152604482015290519081900360640190fd5b600160a060020a0383166000908152600260208190526040909120549060ff8416900a821561070c57600160a060020a03851660009081526002602052604090208282179055610733565b61071581610c10565b600160a060020a038616600090815260026020526040902090831690555b600160a060020a03851660008181526002602090815260409182902054825190815291517f4b2427414c48082c99b7106e223908995a15ba2b7e909f212fa290ac9600edb59281900390910190a25050505050565b60026020526000908152604090205481565b6107b13330600035600160e060020a031916610b24565b15156107f5576040805160e560020a62461bcd02815260206004820152601a6024820152600080516020610c18833981519152604482015290519081900360640190fd5b6000805473ffffffffffffffffffffffffffffffffffffffff1916600160a060020a03838116919091178083556040519116917f1abebea81bfa2637f28358c371278fb15ede7ea8dd28d2e03b112ff6d936ada491a250565b6108653330600035600160e060020a031916610b24565b15156108a9576040805160e560020a62461bcd02815260206004820152601a6024820152600080516020610c18833981519152604482015290519081900360640190fd5b600160a060020a0383166000908152600360209081526040808320600160e060020a03198616845290915290205460ff851660020a821561091b57600160a060020a0385166000908152600360209081526040808320600160e060020a03198816845290915290208282179055610957565b61092481610c10565b600160a060020a0386166000908152600360209081526040808320600160e060020a031989168452909152902090831690555b600160a060020a0385166000818152600360209081526040808320600160e060020a03198916808552908352928190205481519384529183019190915280517f2a3906e099fa2755f4512db84940edcbc7971256a13ef38530b54f1dcdd627979281900390910190a2505050505050565b600154600160a060020a031681565b6000806109e3846104eb565b60ff841660020a16151591505092915050565b6000610a02838361060f565b15610a0f57506001610a37565b6000610a1a856104eb565b90506000610a2885856105db565b9190911615159150610a379050565b9392505050565b600054600160a060020a031681565b610a643330600035600160e060020a031916610b24565b1515610aa8576040805160e560020a62461bcd02815260206004820152601a6024820152600080516020610c18833981519152604482015290519081900360640190fd5b600160a060020a0383166000818152600460209081526040808320600160e060020a0319871680855290835292819020805460ff191686151590811790915581519384529183019190915280517fb7c0c83174b3517a81382bc58240c2f6e9052bae370607096816c7465dbc67979281900390910190a2505050565b600154600090600160a060020a0385811691161415610b4557506001610a37565b600054600160a060020a03161515610b5f57506000610a37565b600054604080517fb7009613000000000000000000000000000000000000000000000000000000008152600160a060020a0387811660048301528681166024830152600160e060020a0319861660448301529151919092169163b7009613916064808301926020929190829003018186803b158015610bdd57600080fd5b505afa158015610bf1573d6000803e3d6000fd5b505050506040513d6020811015610c0757600080fd5b50519050610a37565b600019189056fe756e617574686f72697a65642066756e6374696f6e2063616c6c000000000000a165627a7a7230582048319333cafefb2a21fa5c0674c7b793040fbccb6c83ad21ef8778f4d90fdfa40029",
  "source": "pragma solidity 0.5.0;\n\nimport \"./Authority.sol\";\n\n/**\n * @title Roles\n * @notice Facilitates access to lists of user roles and capabilities.\n * @author Anibal Catalán <anibalcatalanf@gmail.com>.\n *\n * Originally base on code by DappHub.\n * https://github.com/dapphub/ds-roles/blob/master/src/roles.sol\n *\n*/\n\ncontract Roles is Auth {\n    mapping(address => bytes32) public userRoles;\n    mapping(address => mapping(bytes4 => bytes32)) public capabilityRoles;\n    mapping(address => mapping(bytes4 => bool)) public publicCapabilities;\n    \n    event LogSetUserRole(address indexed who, bytes32 roles);\n    event LogSetPublicCapability(address indexed code, bytes4 signature, bool enabled);\n    event LogSetRoleCapability(address indexed code, bytes4 signature, bytes32 roles);\n\n    constructor() public {\n        setAuthority(address(this));\n    }\n\n    /**\n     * @notice Define User rol.\n     * @param who user address from which will be defined the role.\n     * @param role it is the rol to be defined.\n     * @param enabled boolean that represent the definition.\n     */\n    function setUserRole(address who, uint8 role, bool enabled) public onlyAuth {\n        bytes32 lastRoles = userRoles[who];\n        bytes32 shifted = bytes32(uint256(uint256(2) ** uint256(role)));\n        if (enabled) {\n            userRoles[who] = lastRoles | shifted;\n        } else {\n            userRoles[who] = lastRoles & bitNot(shifted);\n        }\n        emit LogSetUserRole(who, userRoles[who]);\n    }\n    \n    /**\n     * @notice Define public access to a function into a contract.\n     * @param code address contract where the access to a function will be defined.\n     * @param sig function signature where the access will be defined.\n     * @param enabled boolean that represent the definition.\n     */\n    function setPublicCapability(address code, bytes4 sig, bool enabled) public onlyAuth {\n        publicCapabilities[code][sig] = enabled;\n        emit LogSetPublicCapability(code, sig, enabled);\n    }\n\n    /**\n     * @notice Define the access capabilities of some role to some function into a contract.\n     * @param role it is the role which will be defined the access capabilities.\n     * @param code address contract where the access to a function will be defined.\n     * @param sig function signature where the access will be defined.\n     * @param enabled boolean that represent the definition.\n     */\n    function setRoleCapability(uint8 role, address code, bytes4 sig, bool enabled) public onlyAuth {\n        bytes32 lastRoles = capabilityRoles[code][sig];\n        bytes32 shifted = bytes32(uint256(uint256(2) ** uint256(role)));\n        if (enabled) {\n            capabilityRoles[code][sig] = lastRoles | shifted;\n        } else {\n            capabilityRoles[code][sig] = lastRoles & bitNot(shifted);\n        }\n        emit LogSetRoleCapability(code, sig, capabilityRoles[code][sig]);\n    }\n    \n    /**\n     * @notice Return the roles of some address.\n     * @param who user address from which the roles are returned.\n     */\n    function getUserRoles(address who) public view returns(bytes32) {\n        return userRoles[who];\n    }\n    \n    /**\n     * @notice Return roles capables to call a function inside a contract.\n     * @param code address contract by which one asks.\n     * @param sig function signature by which one asks.\n     */\n    function getCapabilityRoles(address code, bytes4 sig) public view returns(bytes32) {\n        return capabilityRoles[code][sig];\n    }\n    \n    /**\n     * @notice Return if some function into  contract have public access.\n     * @param code address contract by which one asks.\n     * @param sig function signature by which one asks.\n     */\n    function isCapabilityPublic(address code, bytes4 sig) public view returns(bool) {\n        return publicCapabilities[code][sig];\n    }\n        \n    /**\n     * @notice Check if and user have some role\n     * @param who user address by which one asks.\n     * @param role it is the role by which one asks.\n     */\n    function hasUserRole(address who, uint8 role) public view returns(bool) {\n        bytes32 roles = getUserRoles(who);\n        bytes32 shifted = bytes32(uint256(uint256(2) ** uint256(role)));\n        return bytes32(0) != roles & shifted;\n    }\n    \n    /**\n     * @notice Verify if the caller can access to a function into a contract.\n     * @param caller user address by which one asks.\n     * @param code address contract by which one asks.\n     * @param sig function signature by which one asks.\n     */\n    function canCall(address caller, address code, bytes4 sig) public view returns(bool) {\n        if (isCapabilityPublic(code, sig)) {\n            return true;\n        } else {\n            bytes32 hasRoles = getUserRoles(caller);\n            bytes32 needsOneOf = getCapabilityRoles(code, sig);\n            return bytes32(0) != hasRoles & needsOneOf;\n        }\n    \n    }\n\n    /**\n     * @notice Negation btiwise operation.\n     * @param input bytes to be negated.\n     */\n    function bitNot(bytes32 input) internal pure returns(bytes32) {\n        return input ^ bytes32(uint256(-1));\n    }\n}\n",
  "sourcePath": "/home/nimrod/SandBox/ethereum/aave/governance/contracts/Roles.sol",
  "compiler": {
    "name": "solc",
    "version": "0.5.0+commit.1d4f565a.Emscripten.clang"
  },
  "schemaVersion": "3.0.11",
  "updatedAt": "2019-07-30T11:31:32.203Z",
  "devdoc": {
    "author": "Anibal Catalán <anibalcatalanf@gmail.com>. * Originally base on code by DappHub. https://github.com/dapphub/ds-roles/blob/master/src/roles.sol",
    "methods": {
      "canCall(address,address,bytes4)": {
        "params": {
          "caller": "user address by which one asks.",
          "code": "address contract by which one asks.",
          "sig": "function signature by which one asks."
        }
      },
      "getCapabilityRoles(address,bytes4)": {
        "params": {
          "code": "address contract by which one asks.",
          "sig": "function signature by which one asks."
        }
      },
      "getUserRoles(address)": {
        "params": {
          "who": "user address from which the roles are returned."
        }
      },
      "hasUserRole(address,uint8)": {
        "params": {
          "role": "it is the role by which one asks.",
          "who": "user address by which one asks."
        }
      },
      "isAuthorized(address,address,bytes4)": {
        "params": {
          "sig": "signature of the function called.",
          "src": "address where the call come from."
        }
      },
      "isCapabilityPublic(address,bytes4)": {
        "params": {
          "code": "address contract by which one asks.",
          "sig": "function signature by which one asks."
        }
      },
      "setAuthority(address)": {
        "params": {
          "_authority": "address contract to be changed."
        }
      },
      "setOwner(address)": {
        "params": {
          "_owner": "Contract owner address."
        }
      },
      "setPublicCapability(address,bytes4,bool)": {
        "params": {
          "code": "address contract where the access to a function will be defined.",
          "enabled": "boolean that represent the definition.",
          "sig": "function signature where the access will be defined."
        }
      },
      "setRoleCapability(uint8,address,bytes4,bool)": {
        "params": {
          "code": "address contract where the access to a function will be defined.",
          "enabled": "boolean that represent the definition.",
          "role": "it is the role which will be defined the access capabilities.",
          "sig": "function signature where the access will be defined."
        }
      },
      "setUserRole(address,uint8,bool)": {
        "params": {
          "enabled": "boolean that represent the definition.",
          "role": "it is the rol to be defined.",
          "who": "user address from which will be defined the role."
        }
      }
    },
    "title": "Roles"
  },
  "userdoc": {
    "methods": {
      "canCall(address,address,bytes4)": {
        "notice": "Verify if the caller can access to a function into a contract."
      },
      "getCapabilityRoles(address,bytes4)": {
        "notice": "Return roles capables to call a function inside a contract."
      },
      "getUserRoles(address)": {
        "notice": "Return the roles of some address."
      },
      "hasUserRole(address,uint8)": {
        "notice": "Check if and user have some role"
      },
      "isAuthorized(address,address,bytes4)": {
        "notice": "Verify if a call is authorized."
      },
      "isCapabilityPublic(address,bytes4)": {
        "notice": "Return if some function into  contract have public access."
      },
      "setAuthority(address)": {
        "notice": "Change the contract that act as authority."
      },
      "setOwner(address)": {
        "notice": "Change the owner of this contract."
      },
      "setPublicCapability(address,bytes4,bool)": {
        "notice": "Define public access to a function into a contract."
      },
      "setRoleCapability(uint8,address,bytes4,bool)": {
        "notice": "Define the access capabilities of some role to some function into a contract."
      },
      "setUserRole(address,uint8,bool)": {
        "notice": "Define User rol."
      }
    },
    "notice": "Facilitates access to lists of user roles and capabilities."
  }
}